{
    "abi": [
        {
            "inputs": [
                {
                    "internalType": "address",
                    "name": "priceFeed",
                    "type": "address"
                }
            ],
            "stateMutability": "nonpayable",
            "type": "constructor"
        },
        {
            "anonymous": false,
            "inputs": [
                {
                    "indexed": true,
                    "internalType": "address",
                    "name": "owner",
                    "type": "address"
                },
                {
                    "indexed": true,
                    "internalType": "address",
                    "name": "approved",
                    "type": "address"
                },
                {
                    "indexed": true,
                    "internalType": "uint256",
                    "name": "tokenId",
                    "type": "uint256"
                }
            ],
            "name": "Approval",
            "type": "event"
        },
        {
            "anonymous": false,
            "inputs": [
                {
                    "indexed": true,
                    "internalType": "address",
                    "name": "owner",
                    "type": "address"
                },
                {
                    "indexed": true,
                    "internalType": "address",
                    "name": "operator",
                    "type": "address"
                },
                {
                    "indexed": false,
                    "internalType": "bool",
                    "name": "approved",
                    "type": "bool"
                }
            ],
            "name": "ApprovalForAll",
            "type": "event"
        },
        {
            "anonymous": false,
            "inputs": [
                {
                    "indexed": false,
                    "internalType": "uint256",
                    "name": "_fromTokenId",
                    "type": "uint256"
                },
                {
                    "indexed": false,
                    "internalType": "uint256",
                    "name": "_toTokenId",
                    "type": "uint256"
                }
            ],
            "name": "BatchMetadataUpdate",
            "type": "event"
        },
        {
            "anonymous": false,
            "inputs": [
                {
                    "indexed": true,
                    "internalType": "uint256",
                    "name": "tokenId",
                    "type": "uint256"
                },
                {
                    "indexed": false,
                    "internalType": "address",
                    "name": "seller",
                    "type": "address"
                },
                {
                    "indexed": false,
                    "internalType": "address",
                    "name": "owner",
                    "type": "address"
                },
                {
                    "indexed": false,
                    "internalType": "uint256",
                    "name": "price",
                    "type": "uint256"
                },
                {
                    "indexed": false,
                    "internalType": "bool",
                    "name": "sold",
                    "type": "bool"
                },
                {
                    "indexed": false,
                    "internalType": "bool",
                    "name": "auctionStarted",
                    "type": "bool"
                },
                {
                    "indexed": false,
                    "internalType": "uint256",
                    "name": "auctionEndTime",
                    "type": "uint256"
                },
                {
                    "indexed": false,
                    "internalType": "address",
                    "name": "bidder",
                    "type": "address"
                }
            ],
            "name": "MarketItemCreated",
            "type": "event"
        },
        {
            "anonymous": false,
            "inputs": [
                {
                    "indexed": false,
                    "internalType": "uint256",
                    "name": "_tokenId",
                    "type": "uint256"
                }
            ],
            "name": "MetadataUpdate",
            "type": "event"
        },
        {
            "anonymous": false,
            "inputs": [
                {
                    "indexed": false,
                    "internalType": "address",
                    "name": "bidder",
                    "type": "address"
                },
                {
                    "indexed": false,
                    "internalType": "uint256",
                    "name": "amount",
                    "type": "uint256"
                }
            ],
            "name": "NewBid",
            "type": "event"
        },
        {
            "anonymous": false,
            "inputs": [
                {
                    "indexed": false,
                    "internalType": "address",
                    "name": "bidder",
                    "type": "address"
                },
                {
                    "indexed": false,
                    "internalType": "uint256",
                    "name": "amount",
                    "type": "uint256"
                }
            ],
            "name": "Refund",
            "type": "event"
        },
        {
            "anonymous": false,
            "inputs": [
                {
                    "indexed": true,
                    "internalType": "address",
                    "name": "from",
                    "type": "address"
                },
                {
                    "indexed": true,
                    "internalType": "address",
                    "name": "to",
                    "type": "address"
                },
                {
                    "indexed": true,
                    "internalType": "uint256",
                    "name": "tokenId",
                    "type": "uint256"
                }
            ],
            "name": "Transfer",
            "type": "event"
        },
        {
            "stateMutability": "payable",
            "type": "fallback"
        },
        {
            "inputs": [
                {
                    "internalType": "address",
                    "name": "to",
                    "type": "address"
                },
                {
                    "internalType": "uint256",
                    "name": "tokenId",
                    "type": "uint256"
                }
            ],
            "name": "approve",
            "outputs": [],
            "stateMutability": "nonpayable",
            "type": "function"
        },
        {
            "inputs": [
                {
                    "internalType": "address",
                    "name": "owner",
                    "type": "address"
                }
            ],
            "name": "balanceOf",
            "outputs": [
                {
                    "internalType": "uint256",
                    "name": "",
                    "type": "uint256"
                }
            ],
            "stateMutability": "view",
            "type": "function"
        },
        {
            "inputs": [
                {
                    "internalType": "uint256",
                    "name": "tokenId",
                    "type": "uint256"
                },
                {
                    "internalType": "uint256",
                    "name": "bidAmount",
                    "type": "uint256"
                }
            ],
            "name": "bid",
            "outputs": [],
            "stateMutability": "payable",
            "type": "function"
        },
        {
            "inputs": [
                {
                    "internalType": "uint256",
                    "name": "tokenId",
                    "type": "uint256"
                }
            ],
            "name": "cancelListing",
            "outputs": [],
            "stateMutability": "payable",
            "type": "function"
        },
        {
            "inputs": [
                {
                    "internalType": "uint256",
                    "name": "tokenId",
                    "type": "uint256"
                },
                {
                    "internalType": "uint256",
                    "name": "startingPrice",
                    "type": "uint256"
                }
            ],
            "name": "createAuction",
            "outputs": [],
            "stateMutability": "payable",
            "type": "function"
        },
        {
            "inputs": [
                {
                    "internalType": "uint256",
                    "name": "tokenId",
                    "type": "uint256"
                }
            ],
            "name": "createMarketSale",
            "outputs": [],
            "stateMutability": "payable",
            "type": "function"
        },
        {
            "inputs": [
                {
                    "internalType": "string",
                    "name": "tokenURI",
                    "type": "string"
                },
                {
                    "internalType": "uint256",
                    "name": "price",
                    "type": "uint256"
                }
            ],
            "name": "createToken",
            "outputs": [
                {
                    "internalType": "uint256",
                    "name": "",
                    "type": "uint256"
                }
            ],
            "stateMutability": "payable",
            "type": "function"
        },
        {
            "inputs": [
                {
                    "internalType": "uint256",
                    "name": "tokenId",
                    "type": "uint256"
                }
            ],
            "name": "endAuction",
            "outputs": [],
            "stateMutability": "payable",
            "type": "function"
        },
        {
            "inputs": [],
            "name": "fetchAuctions",
            "outputs": [
                {
                    "components": [
                        {
                            "internalType": "uint256",
                            "name": "tokenId",
                            "type": "uint256"
                        },
                        {
                            "internalType": "address payable",
                            "name": "seller",
                            "type": "address"
                        },
                        {
                            "internalType": "address payable",
                            "name": "owner",
                            "type": "address"
                        },
                        {
                            "internalType": "uint256",
                            "name": "price",
                            "type": "uint256"
                        },
                        {
                            "internalType": "bool",
                            "name": "sold",
                            "type": "bool"
                        },
                        {
                            "internalType": "bool",
                            "name": "auctionStarted",
                            "type": "bool"
                        },
                        {
                            "internalType": "uint256",
                            "name": "auctionEndTime",
                            "type": "uint256"
                        },
                        {
                            "internalType": "address payable",
                            "name": "bidder",
                            "type": "address"
                        }
                    ],
                    "internalType": "struct NFTMarketplace.MarketItem[]",
                    "name": "",
                    "type": "tuple[]"
                }
            ],
            "stateMutability": "view",
            "type": "function"
        },
        {
            "inputs": [],
            "name": "fetchItemsListed",
            "outputs": [
                {
                    "components": [
                        {
                            "internalType": "uint256",
                            "name": "tokenId",
                            "type": "uint256"
                        },
                        {
                            "internalType": "address payable",
                            "name": "seller",
                            "type": "address"
                        },
                        {
                            "internalType": "address payable",
                            "name": "owner",
                            "type": "address"
                        },
                        {
                            "internalType": "uint256",
                            "name": "price",
                            "type": "uint256"
                        },
                        {
                            "internalType": "bool",
                            "name": "sold",
                            "type": "bool"
                        },
                        {
                            "internalType": "bool",
                            "name": "auctionStarted",
                            "type": "bool"
                        },
                        {
                            "internalType": "uint256",
                            "name": "auctionEndTime",
                            "type": "uint256"
                        },
                        {
                            "internalType": "address payable",
                            "name": "bidder",
                            "type": "address"
                        }
                    ],
                    "internalType": "struct NFTMarketplace.MarketItem[]",
                    "name": "",
                    "type": "tuple[]"
                }
            ],
            "stateMutability": "view",
            "type": "function"
        },
        {
            "inputs": [],
            "name": "fetchMarketItems",
            "outputs": [
                {
                    "components": [
                        {
                            "internalType": "uint256",
                            "name": "tokenId",
                            "type": "uint256"
                        },
                        {
                            "internalType": "address payable",
                            "name": "seller",
                            "type": "address"
                        },
                        {
                            "internalType": "address payable",
                            "name": "owner",
                            "type": "address"
                        },
                        {
                            "internalType": "uint256",
                            "name": "price",
                            "type": "uint256"
                        },
                        {
                            "internalType": "bool",
                            "name": "sold",
                            "type": "bool"
                        },
                        {
                            "internalType": "bool",
                            "name": "auctionStarted",
                            "type": "bool"
                        },
                        {
                            "internalType": "uint256",
                            "name": "auctionEndTime",
                            "type": "uint256"
                        },
                        {
                            "internalType": "address payable",
                            "name": "bidder",
                            "type": "address"
                        }
                    ],
                    "internalType": "struct NFTMarketplace.MarketItem[]",
                    "name": "",
                    "type": "tuple[]"
                }
            ],
            "stateMutability": "view",
            "type": "function"
        },
        {
            "inputs": [],
            "name": "fetchMyNFTs",
            "outputs": [
                {
                    "components": [
                        {
                            "internalType": "uint256",
                            "name": "tokenId",
                            "type": "uint256"
                        },
                        {
                            "internalType": "address payable",
                            "name": "seller",
                            "type": "address"
                        },
                        {
                            "internalType": "address payable",
                            "name": "owner",
                            "type": "address"
                        },
                        {
                            "internalType": "uint256",
                            "name": "price",
                            "type": "uint256"
                        },
                        {
                            "internalType": "bool",
                            "name": "sold",
                            "type": "bool"
                        },
                        {
                            "internalType": "bool",
                            "name": "auctionStarted",
                            "type": "bool"
                        },
                        {
                            "internalType": "uint256",
                            "name": "auctionEndTime",
                            "type": "uint256"
                        },
                        {
                            "internalType": "address payable",
                            "name": "bidder",
                            "type": "address"
                        }
                    ],
                    "internalType": "struct NFTMarketplace.MarketItem[]",
                    "name": "",
                    "type": "tuple[]"
                }
            ],
            "stateMutability": "view",
            "type": "function"
        },
        {
            "inputs": [
                {
                    "internalType": "uint256",
                    "name": "tokenId",
                    "type": "uint256"
                }
            ],
            "name": "getApproved",
            "outputs": [
                {
                    "internalType": "address",
                    "name": "",
                    "type": "address"
                }
            ],
            "stateMutability": "view",
            "type": "function"
        },
        {
            "inputs": [
                {
                    "internalType": "uint256",
                    "name": "tokenId",
                    "type": "uint256"
                }
            ],
            "name": "getBids",
            "outputs": [
                {
                    "components": [
                        {
                            "internalType": "address payable",
                            "name": "bidder",
                            "type": "address"
                        },
                        {
                            "internalType": "uint256",
                            "name": "bidAmount",
                            "type": "uint256"
                        }
                    ],
                    "internalType": "struct NFTMarketplace.Bid[]",
                    "name": "",
                    "type": "tuple[]"
                }
            ],
            "stateMutability": "view",
            "type": "function"
        },
        {
            "inputs": [],
            "name": "getContractAddress",
            "outputs": [
                {
                    "internalType": "address",
                    "name": "",
                    "type": "address"
                }
            ],
            "stateMutability": "view",
            "type": "function"
        },
        {
            "inputs": [],
            "name": "getEthPrice",
            "outputs": [
                {
                    "internalType": "uint256",
                    "name": "",
                    "type": "uint256"
                }
            ],
            "stateMutability": "view",
            "type": "function"
        },
        {
            "inputs": [
                {
                    "internalType": "uint256",
                    "name": "tokenId",
                    "type": "uint256"
                }
            ],
            "name": "getHighestBidderAndAmount",
            "outputs": [
                {
                    "internalType": "address",
                    "name": "",
                    "type": "address"
                },
                {
                    "internalType": "uint256",
                    "name": "",
                    "type": "uint256"
                }
            ],
            "stateMutability": "view",
            "type": "function"
        },
        {
            "inputs": [],
            "name": "getListingPrice",
            "outputs": [
                {
                    "internalType": "uint256",
                    "name": "",
                    "type": "uint256"
                }
            ],
            "stateMutability": "view",
            "type": "function"
        },
        {
            "inputs": [],
            "name": "getSender",
            "outputs": [
                {
                    "internalType": "address",
                    "name": "",
                    "type": "address"
                }
            ],
            "stateMutability": "view",
            "type": "function"
        },
        {
            "inputs": [
                {
                    "internalType": "address",
                    "name": "owner",
                    "type": "address"
                },
                {
                    "internalType": "address",
                    "name": "operator",
                    "type": "address"
                }
            ],
            "name": "isApprovedForAll",
            "outputs": [
                {
                    "internalType": "bool",
                    "name": "",
                    "type": "bool"
                }
            ],
            "stateMutability": "view",
            "type": "function"
        },
        {
            "inputs": [],
            "name": "name",
            "outputs": [
                {
                    "internalType": "string",
                    "name": "",
                    "type": "string"
                }
            ],
            "stateMutability": "view",
            "type": "function"
        },
        {
            "inputs": [
                {
                    "internalType": "uint256",
                    "name": "tokenId",
                    "type": "uint256"
                }
            ],
            "name": "ownerOf",
            "outputs": [
                {
                    "internalType": "address",
                    "name": "",
                    "type": "address"
                }
            ],
            "stateMutability": "view",
            "type": "function"
        },
        {
            "inputs": [
                {
                    "internalType": "uint256",
                    "name": "tokenId",
                    "type": "uint256"
                },
                {
                    "internalType": "uint256",
                    "name": "price",
                    "type": "uint256"
                }
            ],
            "name": "resellToken",
            "outputs": [],
            "stateMutability": "payable",
            "type": "function"
        },
        {
            "inputs": [
                {
                    "internalType": "address",
                    "name": "from",
                    "type": "address"
                },
                {
                    "internalType": "address",
                    "name": "to",
                    "type": "address"
                },
                {
                    "internalType": "uint256",
                    "name": "tokenId",
                    "type": "uint256"
                }
            ],
            "name": "safeTransferFrom",
            "outputs": [],
            "stateMutability": "nonpayable",
            "type": "function"
        },
        {
            "inputs": [
                {
                    "internalType": "address",
                    "name": "from",
                    "type": "address"
                },
                {
                    "internalType": "address",
                    "name": "to",
                    "type": "address"
                },
                {
                    "internalType": "uint256",
                    "name": "tokenId",
                    "type": "uint256"
                },
                {
                    "internalType": "bytes",
                    "name": "data",
                    "type": "bytes"
                }
            ],
            "name": "safeTransferFrom",
            "outputs": [],
            "stateMutability": "nonpayable",
            "type": "function"
        },
        {
            "inputs": [
                {
                    "internalType": "address",
                    "name": "operator",
                    "type": "address"
                },
                {
                    "internalType": "bool",
                    "name": "approved",
                    "type": "bool"
                }
            ],
            "name": "setApprovalForAll",
            "outputs": [],
            "stateMutability": "nonpayable",
            "type": "function"
        },
        {
            "inputs": [
                {
                    "internalType": "bytes4",
                    "name": "interfaceId",
                    "type": "bytes4"
                }
            ],
            "name": "supportsInterface",
            "outputs": [
                {
                    "internalType": "bool",
                    "name": "",
                    "type": "bool"
                }
            ],
            "stateMutability": "view",
            "type": "function"
        },
        {
            "inputs": [],
            "name": "symbol",
            "outputs": [
                {
                    "internalType": "string",
                    "name": "",
                    "type": "string"
                }
            ],
            "stateMutability": "view",
            "type": "function"
        },
        {
            "inputs": [
                {
                    "internalType": "uint256",
                    "name": "tokenId",
                    "type": "uint256"
                }
            ],
            "name": "tokenURI",
            "outputs": [
                {
                    "internalType": "string",
                    "name": "",
                    "type": "string"
                }
            ],
            "stateMutability": "view",
            "type": "function"
        },
        {
            "inputs": [
                {
                    "internalType": "address",
                    "name": "from",
                    "type": "address"
                },
                {
                    "internalType": "address",
                    "name": "to",
                    "type": "address"
                },
                {
                    "internalType": "uint256",
                    "name": "tokenId",
                    "type": "uint256"
                }
            ],
            "name": "transferFrom",
            "outputs": [],
            "stateMutability": "nonpayable",
            "type": "function"
        },
        {
            "inputs": [
                {
                    "internalType": "uint256",
                    "name": "_listingPrice",
                    "type": "uint256"
                }
            ],
            "name": "updateListingPrice",
            "outputs": [],
            "stateMutability": "payable",
            "type": "function"
        },
        {
            "inputs": [],
            "name": "withdrawFunds",
            "outputs": [],
            "stateMutability": "nonpayable",
            "type": "function"
        },
        {
            "stateMutability": "payable",
            "type": "receive"
        }
    ],
    "bytecode": {
        "object": "0x6080604052662386f26fc100006009553480156200001c57600080fd5b5060405162003653380380620036538339810160408190526200003f91620000dd565b6040518060400160405280601081526020016f4d657461766572736520546f6b656e7360801b815250604051806040016040528060048152602001631351551560e21b8152508160009081620000969190620001b4565b506001620000a58282620001b4565b5050600a8054336001600160a01b031991821617909155600b80549091166001600160a01b0393909316929092179091555062000280565b600060208284031215620000f057600080fd5b81516001600160a01b03811681146200010857600080fd5b9392505050565b634e487b7160e01b600052604160045260246000fd5b600181811c908216806200013a57607f821691505b6020821081036200015b57634e487b7160e01b600052602260045260246000fd5b50919050565b601f821115620001af57600081815260208120601f850160051c810160208610156200018a5750805b601f850160051c820191505b81811015620001ab5782815560010162000196565b5050505b505050565b81516001600160401b03811115620001d057620001d06200010f565b620001e881620001e1845462000125565b8462000161565b602080601f831160018114620002205760008415620002075750858301515b600019600386901b1c1916600185901b178555620001ab565b600085815260208120601f198616915b82811015620002515788860151825594840194600190910190840162000230565b5085821015620002705787850151600019600388901b60f8161c191681555b5050505050600190811b01905550565b6133c380620002906000396000f3fe6080604052600436106101cf5760003560e01c8063526167ee116100f6578063a22cb4651161008f578063be9af53611610061578063be9af5361461050a578063c87b56dd1461051d578063e219fc751461053d578063e985e9c51461055057005b8063a22cb465146104a4578063ae677aa3146104c4578063b88d4fde146104d7578063b9a2de3a146104f757005b806367c9b017116100c857806367c9b0171461044757806370a082311461045c57806372b3b6201461047c57806395d89b411461048f57005b8063526167ee146103c2578063598647f8146104015780635e01eb5a146104145780636352211e1461042757005b80631b2fcf4811610168578063305a67a81161013a578063305a67a81461036757806332a2c5d01461037a57806342842e0e1461038d57806345f8fa80146103ad57005b80631b2fcf4814610308578063202e37401461031d57806323b872dd1461033257806324600fc31461035257005b8063095ea7b3116101a1578063095ea7b31461027a5780630f08efe01461029a57806312e85585146102bc578063131d9a27146102db57005b80630121683f146101d857806301ffc9a7146101eb57806306fdde0314610220578063081812fc1461024257005b366101d657005b005b6101d66101e6366004612ac3565b610599565b3480156101f757600080fd5b5061020b610206366004612afb565b610693565b60405190151581526020015b60405180910390f35b34801561022c57600080fd5b506102356106be565b6040516102179190612b68565b34801561024e57600080fd5b5061026261025d366004612b7b565b610750565b6040516001600160a01b039091168152602001610217565b34801561028657600080fd5b506101d6610295366004612bb0565b610777565b3480156102a657600080fd5b506102af61088c565b6040516102179190612bda565b3480156102c857600080fd5b506009545b604051908152602001610217565b3480156102e757600080fd5b506102fb6102f6366004612b7b565b610a29565b6040516102179190612c79565b34801561031457600080fd5b506102af610ab1565b34801561032957600080fd5b506102af610ce5565b34801561033e57600080fd5b506101d661034d366004612cc4565b610ebf565b34801561035e57600080fd5b506101d6610ef0565b6101d6610375366004612b7b565b610f9b565b34801561038657600080fd5b5030610262565b34801561039957600080fd5b506101d66103a8366004612cc4565b6110d1565b3480156103b957600080fd5b506102af6110ec565b3480156103ce57600080fd5b506103e26103dd366004612b7b565b6112c6565b604080516001600160a01b039093168352602083019190915201610217565b6101d661040f366004612ac3565b611352565b34801561042057600080fd5b5033610262565b34801561043357600080fd5b50610262610442366004612b7b565b6116c2565b34801561045357600080fd5b506102cd611722565b34801561046857600080fd5b506102cd610477366004612d00565b611756565b6102cd61048a366004612da7565b6117dc565b34801561049b57600080fd5b5061023561181e565b3480156104b057600080fd5b506101d66104bf366004612e00565b61182d565b6101d66104d2366004612b7b565b611838565b3480156104e357600080fd5b506101d66104f2366004612e3c565b6118b0565b6101d6610505366004612b7b565b6118e8565b6101d6610518366004612b7b565b611ac7565b34801561052957600080fd5b50610235610538366004612b7b565b611cb9565b6101d661054b366004612ac3565b611dc9565b34801561055c57600080fd5b5061020b61056b366004612eb8565b6001600160a01b03918216600090815260056020908152604080832093909416825291909152205460ff1690565b6000828152600c60205260409020600101546001600160a01b031633146105db5760405162461bcd60e51b81526004016105d290612eeb565b60405180910390fd5b600081116106445760405162461bcd60e51b815260206004820152603060248201527f4e46544d61726b65743a207374617274696e67207072696365206d757374206260448201526f0652067726561746572207468616e20360841b60648201526084016105d2565b6000828152600c60205260409020600481018054600390920183905561ffff1990911661010017905561067a4262093a80612f4c565b6000928352600c60205260409092206005019190915550565b60006001600160e01b03198216632483248360e11b14806106b857506106b882611ec1565b92915050565b6060600080546106cd90612f5f565b80601f01602080910402602001604051908101604052809291908181526020018280546106f990612f5f565b80156107465780601f1061071b57610100808354040283529160200191610746565b820191906000526020600020905b81548152906001019060200180831161072957829003601f168201915b5050505050905090565b600061075b82611f11565b506000908152600460205260409020546001600160a01b031690565b6000610782826116c2565b9050806001600160a01b0316836001600160a01b0316036107ef5760405162461bcd60e51b815260206004820152602160248201527f4552433732313a20617070726f76616c20746f2063757272656e74206f776e656044820152603960f91b60648201526084016105d2565b336001600160a01b038216148061080b575061080b813361056b565b61087d5760405162461bcd60e51b815260206004820152603d60248201527f4552433732313a20617070726f76652063616c6c6572206973206e6f7420746f60448201527f6b656e206f776e6572206f7220617070726f76656420666f7220616c6c00000060648201526084016105d2565b6108878383611f73565b505050565b6060600061089960075490565b905060006108a660085490565b6007546108b39190612f99565b90506000808267ffffffffffffffff8111156108d1576108d1612d1b565b60405190808252806020026020018201604052801561090a57816020015b6108f7612a7f565b8152602001906001900390816108ef5790505b50905060005b84811015610a205730600c6000610928846001612f4c565b81526020810191909152604001600020600201546001600160a01b031603610a0e576000610957826001612f4c565b6000818152600c6020908152604091829020825161010080820185528254825260018301546001600160a01b0390811694830194909452600283015484169482019490945260038201546060820152600482015460ff80821615156080840152949004909316151560a0840152600581015460c0840152600681015490911660e08301528551929350918590879081106109f3576109f3612fac565b6020908102919091010152610a09600186612f4c565b945050505b80610a1881612fc2565b915050610910565b50949350505050565b6060600d6000838152602001908152602001600020805480602002602001604051908101604052809291908181526020016000905b82821015610aa6576000848152602090819020604080518082019091526002850290910180546001600160a01b03168252600190810154828401529083529092019101610a5e565b505050509050919050565b60606000610abe60075490565b905060008060005b83811015610b4d57600c6000610add836001612f4c565b8152602081019190915260400160002060040154610100900460ff168015610b285750600c6000610b0f836001612f4c565b815260208101919091526040016000206004015460ff16155b15610b3b57610b38600184612f4c565b92505b80610b4581612fc2565b915050610ac6565b5060008267ffffffffffffffff811115610b6957610b69612d1b565b604051908082528060200260200182016040528015610ba257816020015b610b8f612a7f565b815260200190600190039081610b875790505b50905060005b84811015610a2057600c6000610bbf836001612f4c565b8152602081019190915260400160002060040154610100900460ff168015610c0a5750600c6000610bf1836001612f4c565b815260208101919091526040016000206004015460ff16155b15610cd3576000610c1c826001612f4c565b6000818152600c6020908152604091829020825161010080820185528254825260018301546001600160a01b0390811694830194909452600283015484169482019490945260038201546060820152600482015460ff80821615156080840152949004909316151560a0840152600581015460c0840152600681015490911660e0830152855192935091859087908110610cb857610cb8612fac565b6020908102919091010152610cce600186612f4c565b945050505b80610cdd81612fc2565b915050610ba8565b60606000610cf260075490565b905060008060005b83811015610d545733600c6000610d12846001612f4c565b81526020810191909152604001600020600201546001600160a01b031603610d4257610d3f600184612f4c565b92505b80610d4c81612fc2565b915050610cfa565b5060008267ffffffffffffffff811115610d7057610d70612d1b565b604051908082528060200260200182016040528015610da957816020015b610d96612a7f565b815260200190600190039081610d8e5790505b50905060005b84811015610a205733600c6000610dc7846001612f4c565b81526020810191909152604001600020600201546001600160a01b031603610ead576000610df6826001612f4c565b6000818152600c6020908152604091829020825161010080820185528254825260018301546001600160a01b0390811694830194909452600283015484169482019490945260038201546060820152600482015460ff80821615156080840152949004909316151560a0840152600581015460c0840152600681015490911660e0830152855192935091859087908110610e9257610e92612fac565b6020908102919091010152610ea8600186612f4c565b945050505b80610eb781612fc2565b915050610daf565b610ec93382611fe1565b610ee55760405162461bcd60e51b81526004016105d290612fdb565b61088783838361205f565b600a546001600160a01b03163314610f5d5760405162461bcd60e51b815260206004820152602a60248201527f4f6e6c792074686520636f6e7472616374206f776e65722063616e2077697468604482015269647261772066756e647360b01b60648201526084016105d2565b600a5460405147916001600160a01b03169082156108fc029083906000818181858888f19350505050158015610f97573d6000803e3d6000fd5b5050565b6000818152600c6020526040902060038101546001909101546001600160a01b0316331461100b5760405162461bcd60e51b815260206004820181905260248201527f4e46544d61726b65743a20796f75277265206e6f74207468652073656c6c657260448201526064016105d2565b600081116110665760405162461bcd60e51b815260206004820152602260248201527f4e46544d61726b65743a206e6674206e6f74206c697374656420666f722073616044820152616c6560f01b60648201526084016105d2565b6000828152600c602052604081206002810180546001600160a01b0319908116331790915560048201805460ff191660019081179091556003830193909355918101805483169055600601805490911690556110c6600880546001019055565b610f9730338461205f565b610887838383604051806020016040528060008152506118b0565b606060006110f960075490565b905060008060005b8381101561115b5733600c6000611119846001612f4c565b81526020810191909152604001600020600101546001600160a01b03160361114957611146600184612f4c565b92505b8061115381612fc2565b915050611101565b5060008267ffffffffffffffff81111561117757611177612d1b565b6040519080825280602002602001820160405280156111b057816020015b61119d612a7f565b8152602001906001900390816111955790505b50905060005b84811015610a205733600c60006111ce846001612f4c565b81526020810191909152604001600020600101546001600160a01b0316036112b45760006111fd826001612f4c565b6000818152600c6020908152604091829020825161010080820185528254825260018301546001600160a01b0390811694830194909452600283015484169482019490945260038201546060820152600482015460ff80821615156080840152949004909316151560a0840152600581015460c0840152600681015490911660e083015285519293509185908790811061129957611299612fac565b60209081029190910101526112af600186612f4c565b945050505b806112be81612fc2565b9150506111b6565b6000818152600c60205260408120600401548190610100900460ff166112fe5760405162461bcd60e51b81526004016105d290613028565b6000838152600c602052604081206003015461131b576000611337565b6000848152600c60205260409020600601546001600160a01b03165b6000948552600c602052604090942060030154939492505050565b6000828152600c6020526040902060040154610100900460ff166113885760405162461bcd60e51b81526004016105d290613028565b6000828152600c602052604090206005015442106113e85760405162461bcd60e51b815260206004820152601860248201527f4e46544d61726b65743a2061756374696f6e20656e646564000000000000000060448201526064016105d2565b6000828152600c6020526040902060030154811161145f5760405162461bcd60e51b815260206004820152602e60248201527f4e46544d61726b65743a20626964206d7573742062652068696768657220746860448201526d185b8818dd5c9c995b9d08189a5960921b60648201526084016105d2565b803410156114af5760405162461bcd60e51b815260206004820152601b60248201527f4e46544d61726b65743a204e6f7420656e6f7567682066756e6473000000000060448201526064016105d2565b6000828152600c60205260409020600601546001600160a01b0316158015906114e857506000828152600c602052604090206003015415155b15611608576000828152600c6020908152604091829020600681015460039091015483516001600160a01b0390921680835292820181905291927fbb28353e4598c3b9199101a66e0989549b659a59a54d2c27fbb183f1932c8e6d910160405180910390a16000826001600160a01b03168260405160006040518083038185875af1925050503d806000811461159a576040519150601f19603f3d011682016040523d82523d6000602084013e61159f565b606091505b50509050806116045760405162461bcd60e51b815260206004820152602b60248201527f4e46544d61726b65743a204661696c656420746f20726566756e64207072657660448201526a34b7bab9903134b23232b960a91b60648201526084016105d2565b5050505b6000828152600d6020908152604080832081518083018352338082528185018781528354600180820186558589528789209451600290920290940180546001600160a01b039092166001600160a01b031992831617815591519190930155878652600c8552948390206006810180549092168617909155600301859055815193845291830184905290917fdd0b6c6a77960e2066c96171b4d7ac9e8b4c184011f38544afa36a5bb63ec59f910160405180910390a1505050565b6000818152600260205260408120546001600160a01b0316806106b85760405162461bcd60e51b8152602060048201526018602482015277115490cdcc8c4e881a5b9d985b1a59081d1bdad95b88125160421b60448201526064016105d2565b600b54600090819061173c906001600160a01b03166121c3565b9050611750670de0b6b3a76400008261305f565b91505090565b60006001600160a01b0382166117c05760405162461bcd60e51b815260206004820152602960248201527f4552433732313a2061646472657373207a65726f206973206e6f7420612076616044820152683634b21037bbb732b960b91b60648201526084016105d2565b506001600160a01b031660009081526003602052604090205490565b60006117ec600780546001019055565b60006117f760075490565b9050611803338261223f565b61180d81856123ca565b6118178184612495565b9392505050565b6060600180546106cd90612f5f565b610f97338383612648565b600a546001600160a01b031633146118ab5760405162461bcd60e51b815260206004820152603060248201527f4f6e6c79206d61726b6574706c616365206f776e65722063616e20757064617460448201526f32903634b9ba34b73390383934b1b29760811b60648201526084016105d2565b600955565b6118ba3383611fe1565b6118d65760405162461bcd60e51b81526004016105d290612fdb565b6118e284848484612716565b50505050565b6000818152600c6020526040902060040154610100900460ff1661191e5760405162461bcd60e51b81526004016105d290613028565b6000818152600c60205260409020600101546001600160a01b031633146119575760405162461bcd60e51b81526004016105d290612eeb565b6000818152600c6020526040812060030154611974576000611990565b6000828152600c60205260409020600601546001600160a01b03165b6000838152600c60205260409020600301549091506001600160a01b038216158015906119bd5750600081115b15611a6d576000838152600c60205260408082206001015490516001600160a01b039091169183156108fc02918491818181858888f19350505050158015611a09573d6000803e3d6000fd5b506000838152600c6020526040902060048101805461ffff191660019081179091556002820180546001600160a01b0386166001600160a01b031991821617909155910180549091169055611a62600880546001019055565b61088730838561205f565b6000838152600c6020526040902060048101805461ffff191660019081179091556002820180546001600160a01b03199081163317909155910180549091169055611abc600880546001019055565b61088730338561205f565b6000818152600c6020526040902060030154348114611b50576040805162461bcd60e51b81526020600482015260248101919091527f506c65617365207375626d6974207468652061736b696e67207072696365206960448201527f6e206f7264657220746f20636f6d706c6574652074686520707572636861736560648201526084016105d2565b6000828152600c6020526040902060040154610100900460ff1615611bd05760405162461bcd60e51b815260206004820152603060248201527f4f6e2061756374696f6e2c20506c6561736520676f20746f2041756374696f6e60448201526f081d1bc8189a59081d1a1a5cc813919560821b60648201526084016105d2565b6000828152600c60205260408082206001015490516001600160a01b03909116913480156108fc02929091818181858888f19350505050158015611c18573d6000803e3d6000fd5b506000828152600c602052604090206002810180546001600160a01b0319908116331790915560048201805460ff191660019081179091558201805482169055600690910180549091169055611c72600880546001019055565b611c7d30338461205f565b600a546009546040516001600160a01b039092169181156108fc0291906000818181858888f19350505050158015610887573d6000803e3d6000fd5b6060611cc482611f11565b60008281526006602052604081208054611cdd90612f5f565b80601f0160208091040260200160405190810160405280929190818152602001828054611d0990612f5f565b8015611d565780601f10611d2b57610100808354040283529160200191611d56565b820191906000526020600020905b815481529060010190602001808311611d3957829003601f168201915b505050505090506000611d7460408051602081019091526000815290565b90508051600003611d86575092915050565b815115611db8578082604051602001611da0929190613081565b60405160208183030381529060405292505050919050565b611dc184612749565b949350505050565b6000828152600c60205260409020600201546001600160a01b03163314611e455760405162461bcd60e51b815260206004820152602a60248201527f4f6e6c79206974656d206f776e65722063616e20706572666f726d20746869736044820152691037b832b930ba34b7b760b11b60648201526084016105d2565b6009543414611e665760405162461bcd60e51b81526004016105d2906130b0565b6000828152600c6020526040902060048101805460ff19169055600381018290556001810180546001600160a01b031990811633179091556002909101805490911630179055611eb660086127bc565b610f9733308461205f565b60006001600160e01b031982166380ac58cd60e01b1480611ef257506001600160e01b03198216635b5e139f60e01b145b806106b857506301ffc9a760e01b6001600160e01b03198316146106b8565b6000818152600260205260409020546001600160a01b0316611f705760405162461bcd60e51b8152602060048201526018602482015277115490cdcc8c4e881a5b9d985b1a59081d1bdad95b88125160421b60448201526064016105d2565b50565b600081815260046020526040902080546001600160a01b0319166001600160a01b0384169081179091558190611fa8826116c2565b6001600160a01b03167f8c5be1e5ebec7d5bd14f71427d1e84f3dd0314c0f7b2291e5b200ac8c7c3b92560405160405180910390a45050565b600080611fed836116c2565b9050806001600160a01b0316846001600160a01b0316148061203457506001600160a01b0380821660009081526005602090815260408083209388168352929052205460ff165b80611dc15750836001600160a01b031661204d84610750565b6001600160a01b031614949350505050565b826001600160a01b0316612072826116c2565b6001600160a01b0316146120985760405162461bcd60e51b81526004016105d2906130f4565b6001600160a01b0382166120fa5760405162461bcd60e51b8152602060048201526024808201527f4552433732313a207472616e7366657220746f20746865207a65726f206164646044820152637265737360e01b60648201526084016105d2565b826001600160a01b031661210d826116c2565b6001600160a01b0316146121335760405162461bcd60e51b81526004016105d2906130f4565b600081815260046020908152604080832080546001600160a01b03199081169091556001600160a01b0387811680865260038552838620805460001901905590871680865283862080546001019055868652600290945282852080549092168417909155905184937fddf252ad1be2c89b69c2b068fc378daa952ba7f163c4a11628f55a4df523b3ef91a4505050565b600080826001600160a01b031663feaf968c6040518163ffffffff1660e01b815260040160a060405180830381865afa158015612204573d6000803e3d6000fd5b505050506040513d601f19601f820116820180604052508101906122289190613153565b505050915050806402540be40061181791906131a3565b6001600160a01b0382166122955760405162461bcd60e51b815260206004820181905260248201527f4552433732313a206d696e7420746f20746865207a65726f206164647265737360448201526064016105d2565b6000818152600260205260409020546001600160a01b0316156122fa5760405162461bcd60e51b815260206004820152601c60248201527f4552433732313a20746f6b656e20616c7265616479206d696e7465640000000060448201526064016105d2565b6000818152600260205260409020546001600160a01b03161561235f5760405162461bcd60e51b815260206004820152601c60248201527f4552433732313a20746f6b656e20616c7265616479206d696e7465640000000060448201526064016105d2565b6001600160a01b038216600081815260036020908152604080832080546001019055848352600290915280822080546001600160a01b0319168417905551839291907fddf252ad1be2c89b69c2b068fc378daa952ba7f163c4a11628f55a4df523b3ef908290a45050565b6000828152600260205260409020546001600160a01b03166124455760405162461bcd60e51b815260206004820152602e60248201527f45524337323155524953746f726167653a2055524920736574206f66206e6f6e60448201526d32bc34b9ba32b73a103a37b5b2b760911b60648201526084016105d2565b600082815260066020526040902061245d8282613221565b506040518281527ff8e1a15aba9398e019f0b49df1a4fde98ee17ae345cb5f6b5e2c27f5033e8ce79060200160405180910390a15050565b600081116124e55760405162461bcd60e51b815260206004820152601c60248201527f5072696365206d757374206265206174206c656173742031207765690000000060448201526064016105d2565b60095434146125065760405162461bcd60e51b81526004016105d2906130b0565b604080516101008082018352848252336020808401828152308587018181526060870189815260006080890181815260a08a0182815260c08b0183815260e08c018481528f8552600c9099529b90922099518a55945160018a0180546001600160a01b03199081166001600160a01b0393841617909155935160028b0180548616918316919091179055915160038a01559351600489018054955161ffff1990961691151561ff00191691909117941515909702939093179095559551600586015590516006909401805490931693169290921790556125e6918461205f565b604080513381523060208201529081018290526000606082018190526080820181905260a0820181905260c082015282907f2fc91d4a0e19029eab984a1ae546a8c0b986921bd52cff4091d69a405349430b9060e00160405180910390a25050565b816001600160a01b0316836001600160a01b0316036126a95760405162461bcd60e51b815260206004820152601960248201527f4552433732313a20617070726f766520746f2063616c6c65720000000000000060448201526064016105d2565b6001600160a01b03838116600081815260056020908152604080832094871680845294825291829020805460ff191686151590811790915591519182527f17307eab39ab6107e8899845ad3d59bd9653f200f220920489ca2b5937696c31910160405180910390a3505050565b61272184848461205f565b61272d84848484612813565b6118e25760405162461bcd60e51b81526004016105d2906132e1565b606061275482611f11565b600061276b60408051602081019091526000815290565b9050600081511161278b5760405180602001604052806000815250611817565b8061279584612914565b6040516020016127a6929190613081565b6040516020818303038152906040529392505050565b80548061280b5760405162461bcd60e51b815260206004820152601b60248201527f436f756e7465723a2064656372656d656e74206f766572666c6f77000000000060448201526064016105d2565b600019019055565b60006001600160a01b0384163b1561290957604051630a85bd0160e11b81526001600160a01b0385169063150b7a0290612857903390899088908890600401613333565b6020604051808303816000875af1925050508015612892575060408051601f3d908101601f1916820190925261288f91810190613370565b60015b6128ef573d8080156128c0576040519150601f19603f3d011682016040523d82523d6000602084013e6128c5565b606091505b5080516000036128e75760405162461bcd60e51b81526004016105d2906132e1565b805181602001fd5b6001600160e01b031916630a85bd0160e11b149050611dc1565b506001949350505050565b60606000612921836129a7565b600101905060008167ffffffffffffffff81111561294157612941612d1b565b6040519080825280601f01601f19166020018201604052801561296b576020820181803683370190505b5090508181016020015b600019016f181899199a1a9b1b9c1cb0b131b232b360811b600a86061a8153600a850494508461297557509392505050565b60008072184f03e93ff9f4daa797ed6e38ed64bf6a1f0160401b83106129e65772184f03e93ff9f4daa797ed6e38ed64bf6a1f0160401b830492506040015b6d04ee2d6d415b85acef81000000008310612a12576d04ee2d6d415b85acef8100000000830492506020015b662386f26fc100008310612a3057662386f26fc10000830492506010015b6305f5e1008310612a48576305f5e100830492506008015b6127108310612a5c57612710830492506004015b60648310612a6e576064830492506002015b600a83106106b85760010192915050565b6040805161010081018252600080825260208201819052918101829052606081018290526080810182905260a0810182905260c0810182905260e081019190915290565b60008060408385031215612ad657600080fd5b50508035926020909101359150565b6001600160e01b031981168114611f7057600080fd5b600060208284031215612b0d57600080fd5b813561181781612ae5565b60005b83811015612b33578181015183820152602001612b1b565b50506000910152565b60008151808452612b54816020860160208601612b18565b601f01601f19169290920160200192915050565b6020815260006118176020830184612b3c565b600060208284031215612b8d57600080fd5b5035919050565b80356001600160a01b0381168114612bab57600080fd5b919050565b60008060408385031215612bc357600080fd5b612bcc83612b94565b946020939093013593505050565b602080825282518282018190526000919060409081850190868401855b82811015612c6c57815180518552868101516001600160a01b0390811688870152868201518116878701526060808301519087015260808083015115159087015260a08083015115159087015260c0808301519087015260e09182015116908501526101009093019290850190600101612bf7565b5091979650505050505050565b602080825282518282018190526000919060409081850190868401855b82811015612c6c57815180516001600160a01b03168552860151868501529284019290850190600101612c96565b600080600060608486031215612cd957600080fd5b612ce284612b94565b9250612cf060208501612b94565b9150604084013590509250925092565b600060208284031215612d1257600080fd5b61181782612b94565b634e487b7160e01b600052604160045260246000fd5b600067ffffffffffffffff80841115612d4c57612d4c612d1b565b604051601f8501601f19908116603f01168101908282118183101715612d7457612d74612d1b565b81604052809350858152868686011115612d8d57600080fd5b858560208301376000602087830101525050509392505050565b60008060408385031215612dba57600080fd5b823567ffffffffffffffff811115612dd157600080fd5b8301601f81018513612de257600080fd5b612df185823560208401612d31565b95602094909401359450505050565b60008060408385031215612e1357600080fd5b612e1c83612b94565b915060208301358015158114612e3157600080fd5b809150509250929050565b60008060008060808587031215612e5257600080fd5b612e5b85612b94565b9350612e6960208601612b94565b925060408501359150606085013567ffffffffffffffff811115612e8c57600080fd5b8501601f81018713612e9d57600080fd5b612eac87823560208401612d31565b91505092959194509250565b60008060408385031215612ecb57600080fd5b612ed483612b94565b9150612ee260208401612b94565b90509250929050565b6020808252602b908201527f4e46544d61726b65743a20796f75277265206e6f7420746865206f776e65722060408201526a1bd9881d1a1a5cc813919560aa1b606082015260800190565b634e487b7160e01b600052601160045260246000fd5b808201808211156106b8576106b8612f36565b600181811c90821680612f7357607f821691505b602082108103612f9357634e487b7160e01b600052602260045260246000fd5b50919050565b818103818111156106b8576106b8612f36565b634e487b7160e01b600052603260045260246000fd5b600060018201612fd457612fd4612f36565b5060010190565b6020808252602d908201527f4552433732313a2063616c6c6572206973206e6f7420746f6b656e206f776e6560408201526c1c881bdc88185c1c1c9bdd9959609a1b606082015260800190565b6020808252601e908201527f4e46544d61726b65743a2061756374696f6e206e6f7420737461727465640000604082015260600190565b60008261307c57634e487b7160e01b600052601260045260246000fd5b500490565b60008351613093818460208801612b18565b8351908301906130a7818360208801612b18565b01949350505050565b60208082526024908201527f5072696365206d75737420626520657175616c20746f206c697374696e6720706040820152637269636560e01b606082015260800190565b60208082526025908201527f4552433732313a207472616e736665722066726f6d20696e636f72726563742060408201526437bbb732b960d91b606082015260800190565b805169ffffffffffffffffffff81168114612bab57600080fd5b600080600080600060a0868803121561316b57600080fd5b61317486613139565b945060208601519350604086015192506060860151915061319760808701613139565b90509295509295909350565b80820260008212600160ff1b841416156131bf576131bf612f36565b81810583148215176106b8576106b8612f36565b601f82111561088757600081815260208120601f850160051c810160208610156131fa5750805b601f850160051c820191505b8181101561321957828155600101613206565b505050505050565b815167ffffffffffffffff81111561323b5761323b612d1b565b61324f816132498454612f5f565b846131d3565b602080601f831160018114613284576000841561326c5750858301515b600019600386901b1c1916600185901b178555613219565b600085815260208120601f198616915b828110156132b357888601518255948401946001909101908401613294565b50858210156132d15787850151600019600388901b60f8161c191681555b5050505050600190811b01905550565b60208082526032908201527f4552433732313a207472616e7366657220746f206e6f6e20455243373231526560408201527131b2b4bb32b91034b6b83632b6b2b73a32b960711b606082015260800190565b6001600160a01b038581168252841660208201526040810183905260806060820181905260009061336690830184612b3c565b9695505050505050565b60006020828403121561338257600080fd5b815161181781612ae556fea2646970667358221220104ec97d69f6d1aa231abd0d2d2eaa539c9e0a7941d20d882ced87e3f2324eb364736f6c63430008130033",
        "linkReferences": {}
    },
    "methodIdentifiers": {
        "approve(address,uint256)": "095ea7b3",
        "balanceOf(address)": "70a08231",
        "bid(uint256,uint256)": "598647f8",
        "cancelListing(uint256)": "305a67a8",
        "createAuction(uint256,uint256)": "0121683f",
        "createMarketSale(uint256)": "be9af536",
        "createToken(string,uint256)": "72b3b620",
        "endAuction(uint256)": "b9a2de3a",
        "fetchAuctions()": "1b2fcf48",
        "fetchItemsListed()": "45f8fa80",
        "fetchMarketItems()": "0f08efe0",
        "fetchMyNFTs()": "202e3740",
        "getApproved(uint256)": "081812fc",
        "getBids(uint256)": "131d9a27",
        "getContractAddress()": "32a2c5d0",
        "getEthPrice()": "67c9b017",
        "getHighestBidderAndAmount(uint256)": "526167ee",
        "getListingPrice()": "12e85585",
        "getSender()": "5e01eb5a",
        "isApprovedForAll(address,address)": "e985e9c5",
        "name()": "06fdde03",
        "ownerOf(uint256)": "6352211e",
        "resellToken(uint256,uint256)": "e219fc75",
        "safeTransferFrom(address,address,uint256)": "42842e0e",
        "safeTransferFrom(address,address,uint256,bytes)": "b88d4fde",
        "setApprovalForAll(address,bool)": "a22cb465",
        "supportsInterface(bytes4)": "01ffc9a7",
        "symbol()": "95d89b41",
        "tokenURI(uint256)": "c87b56dd",
        "transferFrom(address,address,uint256)": "23b872dd",
        "updateListingPrice(uint256)": "ae677aa3",
        "withdrawFunds()": "24600fc3"
    },
    "id": 37
}